:0C0000000C9439000C9400000C946E006D
:10000C000C9400000C9400000C9400000C94000064
:10001C000C9400000C9444010C9400000C9400000F
:10002C000C94A2000C9400000C9400000C940000A2
:10003C000C9400000C9400000C9400000C94000034
:10004C000C9400000C9400001027E80364000A00D4
:10005C0001000010000110000100F000BD000400C0
:10006C00080066000000F894EE27ECBBF1E0FBBF43
:10007C00EBBFE5BFF8E1F1BDE1BD8DE0A2E0BB2730
:10008C00ED938A95E9F780E094E0A0E6ED93019773
:10009C00E9F7EAE6F0E085919591009761F0A5917A
:1000AC00B59105901590BF01F00105900D92019747
:1000BC00E1F7FB01F0CFEFE5EDBFE4E0EEBFC0E60A
:1000CC00D1E00C9460015D9BFECFE881ECB9D4C00B
:1000DC000A921A92FA926A937A938A939A93AA93AF
:1000EC00BA93EA93FA93EFB7EA93F20131962F01A0
:1000FC00D201EAE0F0E00E942C026F01D201EAE0AA
:10010C00F0E00E9456020E94CD01EDE0EA93DBDFA5
:10011C00E4EFF1E0FA93EA930E94E901E991EFBF71
:10012C00F991E991B991A9919991899179916991F3
:10013C00F990199009901895EA93FA93EFB7EA930E
:10014C001A931CB1113309F4A89A113609F4A89822
:10015C00123309F4A99A123609F4A998133309F445
:10016C00AA9A133609F4AA98143309F4AB9A1436E4
:10017C0009F4AB98153309F4AC9A153609F4AC981C
:10018C00163309F4AD9A163609F4AD98173309F401
:10019C00AE9A173609F4AE98183309F4AF9A18369C
:1001AC0009F4AF98183711F466247724163719F42C
:1001BC00E1E0F0E03F01113731F4E0EFF0E04F0106
:1001CC00EDEBF0E05F01173731F4E1EEF0E04F01B9
:1001DC00EBE7F0E05F01123731F4E2EDF0E04F01B4
:1001EC00E9E3F0E05F01143731F4E2ECF0E04F01A9
:1001FC00E6EFF0E05F01193731F4E3EBF0E04F018B
:10020C00E4EBF0E05F01153731F4E4EAF0E04F0184
:10021C00E2E7F0E05F01193631F4E5E9F0E04F0177
:10022C00E0E3F0E05F011F3631F4E5E8F0E04F0168
:10023C00EDEEF0E05F01103731F4E6E7F0E04F014E
:10024C00EBEAF0E05F011A3731F4E7E6F0E04F013A
:10025C00E9E6F0E05F011991E991EFBFF991E991BD
:10026C001895E881E7B98BE18A95F1F7369A349BBA
:10027C00FECF349AE4B1F5B1219608950A92EA932F
:10028C00FA93EFB7EA93062C072811F4C1980CC027
:10029C00E1E0F0E0E615F70539F4C19B02C0C19826
:1002AC0001C0C19A8DBCACBCE991EFBFF991E99149
:1002BC0009901895E0E0EBBBEABBE8BBEFEFE7BBBE
:1002CC00E0E0E5BBEFEFE4BBE0E0E2BBE1BBEBB7AA
:1002DC00E068EBBFE8E0E5BFE0E0E4BFE0E8EABFE0
:1002EC00E5E0EEBDE4E0E9BF8DBCACBCE0E0EBB911
:1002FC00E6E8E0BDE8E9EAB9E0E0E0BDE3E3E9B94E
:10030C00E0E8E8B9E0E0E0BFE7B9E3E8E6B9E0E04F
:10031C00EDB9E6BF7894E0E0EA93A3DF6627772790
:10032C00E0936601F0936701609368017093690133
:10033C00A4EFB1E080E090E00E94F901DF01CB0175
:10034C00EFEFF3E060E070E00E943102E0936201B5
:10035C00F093630160936401709365010E94DC016A
:10036C000E9431026F010E94DC010E9464020E9413
:10037C00CD01EAE0EA93A7DEEDE0EA93A4DEE8EC37
:10038C00F0E0FA93EA930E94E901C5CFFFCFE09326
:10039C006001F0936101EC2DE05DEA930E9469002D
:1003AC00E0916001E05DEA930C946900A091620118
:1003BC00B09163018091640190916501EAE0F0E0F5
:1003CC0060E070E00895E991F991309639F080ED94
:1003DC0097E00197F1F7A8953197C9F70895F19532
:1003EC00E195F04008957A9F702D6B9F700DF89FEA
:1003FC00700DE99F700D6A9F602D710DFB9F600D54
:10040C00711DE89F600D711D8827FA9FF02D610DFD
:10041C00781FEB9FF00D611D781FEA9FE02DF10D09
:10042C00681F781F08950024112490E1AA0FBB1FA8
:10043C00001C111C0E1A1F0A18F40E0E1F1E01C0F0
:10044C00A1609A9599F7FD01D00108953BD0EBDF9F
:10045C000EF4C5DF08953F934F935F93002411244E
:10046C004427552730E2AA0FBB1F881F991F001C79
:10047C00111C441F551F0E1A1F0A460B570B28F44C
:10048C000E0E1F1E461F571F01C0A1603A9559F74B
:10049C00FD01BC01D001CA015F914F913F910895BC
:1004AC00E894B7FF04C0A095B09511966894F7FD39
:1004BC0096DFB9DFFD010EF492DF0895CCDFFD016C
:1004CC00BC010895E894F7FF02C089DF6894B7FF78
:1004DC0006C0A095B095119600F8039400FA089503
:00000001FF
